:020000040800F2
:100000009C210020311600088D1600088D1600086E
:100010008D1600088D1600088D16000800000000DF
:100020000000000000000000000000008D16000825
:100030008D160008000000008D1600088D160008BF
:100040008D1600088D1600088D1600088D16000804
:100050008D1600088D1600088D1600088D160008F4
:100060008D1600088D1600088D1600088D160008E4
:100070008D1600088D1600088D1600088D160008D4
:100080008D1600088D1600088D1600088D160008C4
:100090008D1600088D1600088D1600088D160008B4
:1000A0008D1600088D1600088D1600088D160008A4
:1000B0008D1600088D1600088D1600088D16000894
:1000C0008D1600088D1600088D1600088D16000884
:1000D0008D160008891E0008C11E0008F91E0008C0
:1000E0008D1600088D1600088D1600088D16000864
:1000F0008D1600088D1600088D1600088D16000854
:100100008D1600088D1600088D1600088D16000843
:100110008D1600088D1600088D1600088D16000833
:100120008D1600088D1600088D1600088D16000823
:100130008D1600088D1600088D1600088D16000813
:100140008D1600088D1600088D160008C9270008B6
:100150008D1600088D1600088D160008311F000846
:100160008D1600088D1600088D1600088D160008E3
:100170008D1600088D1600088D1600088D160008D3
:100180008D1600088D16000880B485B000AF786029
:100190000023FB607B68DB684FF0FF325A607B68AE
:1001A000DB684FF0FF325A61FB7B43F08003FB7347
:1001B0007B7B43F008037B737B68DB68FA689A619A
:1001C00000BF1437BD4680BC7047000080B586B0C4
:1001D00000AF78600023FB7400237B610023FB6089
:1001E000032002F0BDFA7B68DB681B69FB607B695A
:1001F00001337B617B69184A934201D9002326E0D1
:10020000FB68C3F3C073DBB2002BE9D000237B6132
:10021000FB6843F00103FB607B68DB68FA681A61E6
:100220007B68DB681B69FB607B6901337B617B69F1
:10023000094A934206D8FB68C3F30003DBB2012BE3
:10024000EED000E000BF032002F08AFAFB7C1846E3
:100250001837BD4680BD00BF400D030080B489B093
:1002600000AFF860B96011461A460B46FB711346A1
:10027000BB800023FB76FB68DB78002B22D10023B8
:100280007B610023FB61BB880333002B00DA03335F
:100290009B107B61FB79FA6832339B0013449B68A7
:1002A0003B610023FB6109E0BB681A683B691A6087
:1002B000FB690133FB61BB680433BB60FA697B698E
:1002C0009A42F1D3FB7E18462437BD4680BC704766
:1002D00080B489B000AFF860B9601346FB8000239A
:1002E000FB61FB880333002B00DA03339B10BB61F7
:1002F000FB68D3F8D0307B610023FB6109E07B69A8
:100300001A68BB681A60FB690133FB61BB68043380
:10031000BB60FA69BB699A42F1D3BB6818462437BF
:10032000BD4680BC7047000080B487B000AF7860E5
:100330000B46FB7000233B610023FB737B680022AC
:10034000DA707B6801229A707B6840229A80FB7881
:10035000012B13D14FF0A0433B617B680122DA727D
:100360007B6808221A707B6804225A707B684FF4FD
:10037000A072DA807B6802221A7211E0FB78002BEF
:100380000ED1454B3B617B680022DA727B680C2200
:100390001A707B6806225A707B684FF4A062DA807C
:1003A0003A697B68DA603B6903F500631A467B684B
:1003B0001A6100237B611CE07B695A013B6913448D
:1003C00003F5106319467A687B6904339B00134474
:1003D00099607B695A013B69134403F53063194600
:1003E0007A687B6914339B00134459607B6901333D
:1003F0007B617B685B781A467B699A42DCD83B69F3
:1004000003F580631A467B685A613B6903F588638C
:100410001A467B68C3F8CC2000237B610FE07B6920
:100420005A013B69134403F5A06319467A687B6956
:1004300022339B00134499607B6901337B617B68A5
:100440001B781A467B699A42E9D800237B610FE04A
:100450007B691A033B69134403F5805319467A6894
:100460007B6932339B00134499607B6901337B6164
:100470007B681B781A467B699A42E9D83B6903F589
:1004800060631A467B68C3F80C21FB7B18461C3757
:10049000BD4680BC704700BF0000044080B588B0F6
:1004A00000AF78600023FB770023BB6100237B61F2
:1004B0000023FB607B681B7A012B4ED17B68DB68D5
:1004C0009B6B7B61BB7D6FF30003BB757B685B7AC5
:1004D000002B03D0BB7D43F01003BB757B68DB684A
:1004E0007A699A630023BB617B68DB68DB68BB6168
:1004F0003B7E6FF386133B76BB7E6FF38613BB7632
:100500003B7E43F010033B763B7E6FF3C3033B76A9
:100510003B7E6FF3C7133B76BB7E6FF34103BB7625
:10052000BB7E6FF3C303BB767B68DB68BA69DA60B6
:100530007868FFF74BFE7B68DB78012B7DD13B7B36
:10054000052262F344033B733B7B43F020033B7380
:100550007B68DB68FA689A606FE07B68DB68DB6861
:10056000BB613B7E43F040033B767B68DB68BA6946
:10057000DA607868FFF72AFE00237B61BB7D43F0D9
:100580000103BB757B681B7A032B03D1BB7D43F052
:100590000203BB75BB7D43F00403BB75BB7D43F019
:1005A0000803BB757B685B7A002B03D0BB7D43F0EF
:1005B0001003BB757B68DB687A699A63142002F0CC
:1005C000F3F87B68DB68DB68BB617B681B7A032B15
:1005D00003D1BB7E43F00103BB767B68DB68BA695D
:1005E000DA607B681B7A032B27D17B68DB681B6B87
:1005F0003B61FB7C012262F38303FB74BB7C6FF3E2
:10060000C713BB74FB7C43F01003FB74BB7C2D222F
:1006100062F30603BB747B68DB683A691A63C8201F
:1006200002F0C2F8BB7C43F08003BB747B68DB68DC
:100630003A691A63C82002F0B7F87B68DB78012BAF
:1006400010D17B68DB689B68FB603B7B052262F313
:1006500044033B733B7B43F020033B737B68DB68C5
:10066000FA689A60FB7F18462037BD4680BD80B48B
:1006700085B000AF78600023FB730023BB603B7A3A
:1006800043F001033B727B68DB687A68D26891684B
:10069000BA680A439A60FB7B18461437BD4680BC93
:1006A000704780B485B000AF78600023FB730023EF
:1006B000BB603B7A43F001033B727B68DB687A687E
:1006C000D2689168BA68D2430A409A60FB7B1846A8
:1006D0001437BD4680BC704780B586B000AF7860E7
:1006E00039600023FB7400237B610023FB60FB68FF
:1006F00043F02003FB603B68DBB203F01F03DAB278
:10070000FB6862F38A13FB607B68DB68FA681A6136
:100710007B68DB681B69FB607B6901337B617B69FC
:10072000094A934206D8FB68C3F34013DBB2012B9E
:10073000EED000E000BF032002F012F8FB7C184668
:100740001837BD4680BD00BF400D030080B586B0A0
:1007500000AF78600023FB7400237B610023FB6003
:10076000FB6843F01003FB607B68DB68FA681A6182
:100770007B68DB681B69FB607B6901337B617B699C
:10078000094A934206D8FB68C3F30013DBB2012B7E
:10079000EED000E000BF032001F0E2FFFB7C184632
:1007A0001837BD4680BD00BF400D030080B584B042
:1007B00000AF78600B46FB700023FB737B68DB683F
:1007C000DB68BB60FB7A6FF34513FB72FB7A6FF358
:1007D0008613FB72FB78012B04D1FB7A43F02003D4
:1007E000FB7206E0FB78002B03D1FB7A43F0400359
:1007F000FB727B68DB68BA68DA60322001F0D4FFF4
:10080000FB7B18461037BD4680BD80B483B000AF77
:1008100078607B68DB685B6903F0010318460C377E
:10082000BD4680BC704780B582B000AF7860786804
:10083000FFF7EBFF0346012B14BF01230023DBB2BC
:1008400018460837BD4680BD80B485B000AF7860DB
:100850000023FB607B68DB685B69FB607B68DB68AF
:100860009B69FA681340FB60FB6818461437BD4665
:1008700080BC704780B485B000AF78600B46FB70D9
:100880007B681B691B68FB60FB7803F00303DAB22B
:100890003B7B62F301033B737B681B69FA681A6058
:1008A00000BF1437BD4680BC704780B58CB000AF28
:1008B0007860002387F82B3000237B6200233B62A3
:1008C0000023FB610023BB6100237B617B68D3F8BD
:1008D0000C3100221A607B681B691B683B6297F829
:1008E00021306FF3C40387F821307B681B693A6AB3
:1008F0001A607B68DB7A012B33D103217868FFF71C
:10090000B9FF7B68DB6880225A622023FB83802347
:10091000BB837B68DB68FA699A62BA8BFB8B1344F2
:100920009BB23B8380237B837B68DB68BA69C3F817
:1009300004213A8B7B8B13449BB23B8320237B8324
:100940007B68DB68BA69C3F808213A8B7B8B134458
:100950009BB23B8300237B837B68DB68BA69C3F867
:100960000C2110217868FFF7B7FE7868FFF7EEFEDC
:100970007B681B6900221A617B681B6900225A612F
:100980007B681B694FF0FF329A617B681B6900220C
:10099000DA610023FB623AE07A68FB6A04339B0069
:1009A00013449B681B687B6297F8273023F07F0312
:1009B000DBB2002B0ED000237B6297F8273043F088
:1009C000400387F8273097F8273043F0080387F86B
:1009D000273001E000237B627A68FB6A04339B00C6
:1009E00013449B687A6A1A607A68FB6A04339B0036
:1009F00013449B6800221A617A68FB6A04339B00E7
:100A000013449B68FF229A60FB6A0133FB627B6898
:100A10005B781A46FB6A9A42BED80023FB6235E037
:100A20007A68FB6A14339B0013445B681B68FB60A5
:100A3000FB7B23F07F03DBB2002B0AD00023FB609B
:100A4000FB7B43F04003FB73FB7B43F00803FB732A
:100A500001E00023FB607A68FB6A14339B001344B7
:100A60005B68FA681A607A68FB6A14339B00134467
:100A70005B6800221A617A68FB6A14339B00134496
:100A80005B68FF229A60FB6A0133FB627B685B78DC
:100A90001A46FB6A9A42C3D800237B617B7D43F0F0
:100AA00001037B757B681B697A68126911697A6931
:100AB000D24311407A690A431A617B68DB78012BC3
:100AC0001BD100233B613B7C43F001033B743B7C27
:100AD00043F002033B743B8A402262F38A033B8269
:100AE000BB7C43F00103BB747B8A402262F3490361
:100AF0007B827B681B693A691A63786800F006F8A4
:100B000097F82B3018463037BD4680BD80B584B08D
:100B100000AF78600023FB730023BB607B68DB6859
:100B200000229A617B68DB684FF0FF325A61786877
:100B3000FFF72AFB7B68DB78002B03D13B7A43F07D
:100B400010033B727B7A43F008037B727B7A43F09D
:100B500010037B727B7A43F020037B72BB7A43F0F5
:100B60000403BB72BB7A43F00803BB723B7A43F0C9
:100B700008033B72BB7A43F01003BB72BB7A43F0AD
:100B80002003BB72FB7A43F04003FB723B7A43F0D5
:100B900004033B727B68DB687A68D2689169BA6843
:100BA000D2431140BA680A439A61FB7B184610375A
:100BB000BD4680BD80B485B000AF78600023FB7374
:100BC0007B681B699B68BB603B7AC3F34103DBB264
:100BD000022B09D0032B04D0012B02D00323FB737B
:100BE00005E00223FB7302E00123FB7300BFFB7BE4
:100BF00018461437BD4680BC704780B487B000AF3C
:100C000078600023FB750023BB607B681B699B68D1
:100C10003B617B689B691B68FB603B7CC3F34103C2
:100C2000DBB2022B04D0BB896FF30A03BB8105E062
:100C3000BB89032262F30A03BB8100BF7B689B6907
:100C4000FA681A607B7A43F001037B727B681B6948
:100C50007A6812695168BA68D2431140BA680A4387
:100C60005A60FB7D18461C37BD4680BC704780B477
:100C700087B000AF786039600023FB740023FB600D
:100C80000023BB603B685B78012B0FD13B681B786E
:100C90007A6804339B0013449B687B613B681B7834
:100CA0001A46012393409BB23B810EE03B681B78C0
:100CB0007A6814339B0013445B687B613B681B7844
:100CC0001A46012393409BB27B817B691B68FB60C2
:100CD0007B7B23F07F03DBB2002B27D13B689B6833
:100CE0009BB2C3F30A039AB2BB8962F30A03BB81C6
:100CF0003B68DB7803F00303DAB2BB7B62F3830368
:100D0000BB733B68DB88DBB203F00F03DAB2FB890D
:100D100062F38913FB81FB7B43F01003FB737B7B46
:100D200043F080037B73FA687B691A607B681B69F8
:100D30007A681269D169BA680A43DA61FB7C18469D
:100D40001C37BD4680BC704780B487B000AF786068
:100D500039600023FB740023FB600023BB603B6809
:100D60005B78012B0FD13B681B787A6804339B00BA
:100D700013449B687B613B681B781A4601239340B0
:100D80009BB23B810EE03B681B787A6814339B0072
:100D900013445B687B613B681B781A4601239340D0
:100DA0009BB27B817B7B6FF3C7137B73FA687B6994
:100DB0001A607B681B697A681269D169BA68D24384
:100DC0000A40DA61FB7C18461C37BD4680BC704780
:100DD00080B588B000AF786039600023FB770023CE
:100DE000BB6100237B6100233B613B685B78012B87
:100DF00040F0AB803B681B787A6804339B00134457
:100E00009B681B687B613B681B787A6804339B0096
:100E100013449B681B693B613B685B69002B09D1EC
:100E20003B696FF312033B617B8A012262F3CC03BF
:100E30007B8222E03B685B69C3F312023B6962F389
:100E400012033B613B685A693B689B6813445A1E16
:100E50003B689B68B2FBF3F39BB2C3F309039AB2FE
:100E60007B8A62F3CC037B823B68DB78012B04D165
:100E7000FB7C012262F34613FB743B681B787A68A3
:100E800004339B0013449B683A691A617B68DB78E2
:100E9000012B0AD13B681B787A6804339B0013440A
:100EA0009B683A6812695A6115E03B68DB78012B50
:100EB00011D03B685B69002B0DD03B681B781A464C
:100EC00001239340BB617B681B697A681269516B8F
:100ED000BA690A435A633B68DB78012B14D17B68FB
:100EE0001B699B68FB60FB68C3F30D239BB203F097
:100EF0000103002B04D1FB7D43F02003FB7503E0CD
:100F0000FB7D43F01003FB75FB7D43F00403FB7591
:100F1000FB7D43F08003FB753B681B787A680433E4
:100F20009B0013449B687A691A603B68DB78012B4D
:100F300040F089803B68D9683B681A783B685B69F8
:100F40009BB27868FFF78AF97DE03B681B787A6886
:100F500014339B0013445B681B687B613B681B7800
:100F60007A6814339B0013445B681B693B613B68E0
:100F70005B69002B0DD13B689B68C3F312023B6990
:100F800062F312033B617B8A012262F3CC037B8212
:100F900020E03B685A693B689B6813445A1E3B68D3
:100FA0009B68B2FBF3F39BB2C3F309039AB27B8A4B
:100FB00062F3CC037B827B8AC3F3C9039BB21A46DC
:100FC0003B689B6803FB02F3C3F312023B6962F3C5
:100FD00012033B613B681B787A6814339B0013440F
:100FE0005B683A691A617B68DB78012B09D13B6841
:100FF0001B787A6814339B0013445B683A68126963
:101000005A613B68DB78012B0CD13B685B79002B84
:1010100004D0FB7D43F02003FB7503E0FB7D43F030
:101020001003FB75FB7D43F00403FB75FB7D43F070
:101030008003FB753B681B787A6814339B0013446C
:101040005B687A691A60FB7F18462037BD4680BD11
:1010500080B489B000AF786039600023FB7700234B
:10106000BB6100233B610023BB603B685B78012BC5
:1010700070D17B689B697B617B691B683B617B6985
:101080001B69BB603B685B69002B09D13B7A6FF33E
:1010900006033B72BB7A012262F3C403BB7223E0F6
:1010A0003B685A693B689B689A420ED93B689A68CC
:1010B0003B685A613B689B68DBB203F07F03DAB29E
:1010C0003B7A62F306033B7209E03B685B69DBB283
:1010D00003F07F03DAB23B7A62F306033B72BB7A1A
:1010E000012262F3C403BB72BA687B691A617B6830
:1010F000DB78012B09D13B681B787A6804339B00AD
:1011000013449B683A6812695A61FB7C43F00403FC
:10111000FB74FB7C43F08003FB743A697B691A60C3
:101120007B68DB78002B76D13B685B69002B72D043
:101130003B681B781A46012393401A46BB69134348
:10114000BB617B681B697A681269516BBA690A4393
:101150005A6360E03B681B787A6814339B00134441
:101160005B681B683B613B681B787A6814339B00A3
:1011700013445B681B69BB603B685B69002B0FD144
:101180003B689B68DBB203F07F03DAB23B7A62F321
:1011900006033B72BB7A012262F3C403BB7212E006
:1011A0003B689A683B685A613B689B68DBB203F016
:1011B0007F03DAB23B7A62F306033B72BB7A012209
:1011C00062F3C403BB723B681B787A6814339B00DC
:1011D00013445B68BA681A617B68DB78012B09D11C
:1011E0003B681B787A6814339B0013445B683A6849
:1011F00012695A61FB7C43F00403FB74FB7C43F0EF
:101200008003FB743B681B787A6814339B0013449B
:101210005B683A691A60FB7F18462437BD4680BC7C
:10122000704780B487B000AF786039600023FB75E9
:101230000023FB603B685B78012B1CD13B681B786B
:101240007A6804339B0013449B683B613B691B68CD
:10125000FB60FB7B23F07F03DBB2002B03D0FB7B27
:1012600043F04003FB73BB7B43F02003BB73FA687E
:101270003B691A6011E03B681B787A6814339B0065
:1012800013445B683B613B691B68FB60BB7B43F0BD
:101290002003BB73FA683B691A60FB7D18461C3754
:1012A000BD4680BC704780B487B000AF78603960BD
:1012B0000023FB740023FB603B685B78012B08D1A3
:1012C0003B681B787A6804339B0013449B687B61FE
:1012D00007E03B681B787A6814339B0013445B6813
:1012E0007B617B691B68FB60BB7B6FF34513BB7342
:1012F0003B68DB78032B03D03B68DB78022B03D100
:10130000FB7B43F01003FB73FA687B691A60FB7C7C
:1013100018461C37BD4680BC704780B485B000AF0E
:1013200078607B681B699B69FB607B681B69DB6974
:10133000FA681340FB60FB681B0C18461437BD4667
:1013400080BC704780B485B000AF78600B46FB70FE
:10135000FB787A6814339B0013445B689B68FB60DE
:101360007B681B695B69FA681340FB60FB68184681
:101370001437BD4680BC704780B485B000AF78603C
:101380007B681B699B69FB607B681B69DB69FA688A
:101390001340FB60FB689BB218461437BD4680BC07
:1013A000704780B487B000AF786000233B61FB7C5E
:1013B00043F0C003FB74BB7C012262F3C403BB7423
:1013C0003B7C182262F306033B747B685B6D3A69D1
:1013D0001A617B68DB78012B16D10023FB607B68E8
:1013E0005B6D7A6802F5B9625A617B685B6D1B6858
:1013F000FB60FB7B43F08003FB734FF08023FB60BB
:101400007B685B6DFA681A6000BF1C37BD4680BC04
:101410007047000080B582B002AF074B01221A70FE
:10142000064B0093064B074A0121074800F031F9AB
:1014300000BFBD4680BD00BF040A002000000020A0
:101440003801002094000020080A002080B400AF7A
:10145000024B1B781846BD4680BC7047040A00202A
:1014600080B584B000AF78600B467B800E4B1B7854
:10147000022B01D0002312E00023FB810AE07B68ED
:101480001B78184601F01CF87B6801337B60FB89F0
:101490000133FB81FA897B889A42F0D301231846F5
:1014A0001037BD4680BD00BF040A002080B400AFE5
:1014B000034B01221A7000BFBD4680BC704700BFBD
:1014C000040A002080B483B000AF0346FB71044BD4
:1014D00001221A7000BF0C37BD4680BC704700BFA8
:1014E000040A002080B400AF034B02221A7000BF30
:1014F000BD4680BC704700BF040A002080B400AF26
:10150000034B01221A7000BFBD4680BC704700BF6C
:10151000040A002080B400AF034B01221A7000BF00
:10152000BD4680BC704700BF040A002080B400AFF5
:10153000034B01221A7000BFBD4680BC704700BF3C
:10154000040A002080B400AF034B01221A7000BFD0
:10155000BD4680BC704700BF040A002080B483B041
:1015600000AF78607B689B889BB2C3F308039BB293
:1015700018460C37BD4680BC704780B487B000AFBA
:1015800078600B467B800023FB6000237B61002397
:10159000BB600023FB747B88DBB25B09DBB2BB6002
:1015A0007B8803F01F037B6101227B6902FA03F34E
:1015B0007B61BB68012B07D17B689B899BB21A4674
:1015C0007B6913407B6111E0BB68022B07D17B680C
:1015D0001B8A9BB21A467B6913407B6106E07B68DD
:1015E0009B8A9BB21A467B6913407B617B881B0AEE
:1015F0009BB2FB600122FB6802FA03F3FB607B688D
:101600001B889BB21A46FB681340FB607B69002B6A
:1016100005D0FB68002B02D00123FB7401E00023FE
:10162000FB74FB7C18461C37BD4680BC704700002D
:1016300080B582B000AF104B7B60104B3B6007E081
:101640003B681A1D3A607A68111D796012681A6049
:101650003B680B4A9342F3D30A480B494FF0000210
:101660008842B8BF40F8042BFADB00F04BFA00BF09
:101670000837BD4680BD00BF8E5000080000002026
:10168000A0090020A0090020A019002080B400AF0C
:10169000FEE780B584B000AFF8607A603B600B462F
:1016A000FB72F86800F0F2FFF86800F01DF8FB68C4
:1016B0003A68C3F8E025FB68BA69C3F8E425FB681B
:1016C0007A68C3F8E825FB7A1946F86802F056FDF7
:1016D000FB68D3F8E4351B689847F86801F026F8F2
:1016E00000BF1037BD4680BD80B483B000AF7860C6
:1016F000002318460C37BD4680BC704780B584B0C7
:1017000000AF786007F108031946786801F036FCED
:101710003B7A03F01F03012B0AD0022B0FD0002BC2
:1017200014D107F108031946786801F057F816E05C
:1017300007F108031946786801F0A0F80FE007F1F7
:1017400008031946786801F0CDF808E03B7A23F0E9
:101750007F03DBB21946786802F09DFE00BF0023CC
:1017600018461037BD4680BD80B584B000AF7860A4
:101770000B46FB70FB78002B44D17B6803F55C7350
:10178000FB607B6893F81131032B4ED1FB68DA695B
:10179000FB689B689A4220D9FB68DA69FB689B6802
:1017A000D21AFB68DA617B68DB78012B06D1FB6813
:1017B000DA68FB689B681A44FB68DA60FB68D968E2
:1017C000FB689A68FB68DB69934228BF13469BB2AB
:1017D0001A46786802F046FF27E07B68D3F8E035C8
:1017E0001B69002B0AD07B6893F81231032B05D1BB
:1017F0007B68D3F8E0351B6978689847786802F011
:1018000045FF12E07B68D3F8E0359B69002B0CD0D4
:101810007B6893F81231032B07D17B68D3F8E0354E
:101820009B69FA7811467868984700231846103764
:10183000BD4680BD80B584B000AF78600B46FB70BC
:10184000FB78002B5FD17B6803F58C73FB607B68B2
:1018500093F81131022B69D1FB68DA69FB689B6848
:101860009A421BD9FB68DA69FB689B68D21AFB684D
:10187000DA617B68DB78012B06D1FB68DA68FB68EC
:101880009B681A44FB68DA60FB68D968FB68DB690F
:101890009BB21A46786802F0B1FE47E0FB681B6A0B
:1018A000FA689268B3FBF2F102FB01F29B1A002B7B
:1018B00014D1FB681A6AFB689B689A420ED3FB68D6
:1018C0001A6AFB685B6A9A4208D200220021786893
:1018D00002F094FEFB6800225A6227E07B68D3F88E
:1018E000E035DB68002B0AD07B6893F81231032BBC
:1018F00005D17B68D3F8E035DB687868984778686D
:1019000002F0DCFE12E07B68D3F8E0355B69002B67
:101910000CD07B6893F81231032B07D17B68D3F886
:10192000E0355B69FA7811467868984700231846D5
:101930001037BD4680BD80B582B000AF786000230F
:1019400040220021786802F09AFC00234022802186
:10195000786802F094FC7B68012283F812217B688E
:10196000D3F8E4355B687A6892781046984700238C
:1019700018460837BD4680BD80B582B000AF78609C
:101980007B68D3F8E4351B6998477B68032283F8AA
:101990001221002318460837BD4680BD80B582B0AD
:1019A00000AF78607B68042283F812217B68D3F84B
:1019B000E435DB689847002318460837BD4680BDEC
:1019C00080B582B000AF78607B68D3F8E035DB6922
:1019D000002B05D07B68D3F8E035DB697868984741
:1019E000002318460837BD4680BD80B582B000AFE1
:1019F00078600B46FB707B68D3F8E0351B68FA789B
:101A00001146786898477B68D3F8E4359B68984717
:101A1000002318460837BD4680BD80B582B000AFB0
:101A200078600B46FB707B68D3F8E0355B68FA782A
:101A3000114678689847002318460837BD4680BD90
:101A400080B582B000AF78607B68D3F8E0351B6A60
:101A500078689847002318460837BD4680BD80B592
:101A600082B000AF78607B68D3F8E0355B6A786855
:101A70009847002318460837BD4680BD80B582B020
:101A800000AF78607B68D3F8E4355B699847002342
:101A900018460837BD4680BD80B582B000AF78607B
:101AA0007B68D3F8E4359B6998477B68D3F8E035C9
:101AB0005B68002178689847002318460837BD46C0
:101AC00080BD000080B588B000AF786007F10C03DE
:101AD000184600F063F83B69094AA2FB03235B0B3D
:101AE0007A6802FB03F3FB6102E0FB69013BFB61E7
:101AF000FB69002BF9D100BF2037BD4680BD00BF78
:101B00005917B7D180B596B000AF142002F0EEFDA2
:101B100003467B65786D03F0D3F80346A7F852308F
:101B200000F0EEFCFFF776FC0121012000F0DEF86A
:101B300001237B6000233B720223FB723B1D19468D
:101B4000134800F099FAFFF781FC034687F85130FB
:101B500097F85130022BF6D101210D4800F019FB06
:101B60000346FB64FB6C012B01D10A4B00E00A4BDE
:101B70007B65786D03F0A4F803469BB21946786D37
:101B8000FFF76EFC4FF47A70FFF79CFFDBE700BFB6
:101B900000000240105000082450000880B489B0B2
:101BA00000AF78600023BB6100237B610023FB61F1
:101BB00002233B610023FB600223BB60474B9B6811
:101BC00003F00C03BB61BB69042B07D0082B09D0C1
:101BD000002B3DD17B68424A1A603DE07B68414A58
:101BE0001A6039E03D4B5B689B0D03F00103FB601D
:101BF0003A4B5B6803F03F03BB60FB68002B0CD0E3
:101C0000384ABB68B2FBF3F3344A52689209C2F314
:101C1000080202FB03F3FB610BE0314ABB68B2FB35
:101C2000F3F32E4A52689209C2F3080202FB03F34F
:101C3000FB612A4B5B681B0C03F0030301335B0061
:101C40003B61FA693B69B2FBF3F27B681A6003E01F
:101C50007B68234A1A6000BF204B9B6803F0F003A7
:101C6000BB61BB691B09BB611F4ABB6913441B787D
:101C7000DBB27B617B681A687B69DA407B685A60FB
:101C8000164B9B6803F4E053BB61BB699B0ABB61C5
:101C9000154ABB6913441B78DBB27B617B685A68C9
:101CA0007B69DA407B689A600C4B9B6803F4604365
:101CB000BB61BB695B0BBB610B4ABB6913441B78FF
:101CC000DBB27B617B685A687B69DA407B68DA60EB
:101CD00000BF2437BD4680BC704700BF00380240BB
:101CE0000024F40000127A004C00002080B483B07D
:101CF00000AF78600B46FB70FB78002B06D00949DB
:101D0000084B1A6B7B6813430B6306E00549054BD0
:101D10001A6B7B68DB4313400B6300BF0C37BD4677
:101D200080BC70470038024080B483B000AF786058
:101D30000B46FB70FB78002B06D00949084B5A6B09
:101D40007B6813434B6306E00549054B5A6B7B6880
:101D5000DB4313404B6300BF0C37BD4680BC70476C
:101D60000038024080B483B000AF78600B46FB704F
:101D7000FB78002B06D00949084B1A6A7B6813438D
:101D80000B6206E00549054B1A6A7B68DB4313408A
:101D90000B6200BF0C37BD4680BC70470038024064
:101DA00090B484B000AF03460A46FB711346BB8073
:101DB000FB791F4A342101FB03F3134432331B78B0
:101DC000312B27D8FB791A4A342101FB03F3134442
:101DD00032331B78FB73FA79FB7BB988CCB2144998
:101DE000342000FB02F20A44134422461A70FB79A5
:101DF0000F49342202FB03F20A44323212780132D4
:101E0000D0B20B4A342101FB03F3134432330246B0
:101E10001A7008E0FB79064A342101FB03F31344EE
:101E2000333302221A7000BF1037BD4690BC704792
:101E3000F80F002080B584B000AF03460A46FB715E
:101E40001346BB800023FB7315E0FA7B0D49134654
:101E5000DB009B1ADB000B4414331B78FA799A429F
:101E600006D1BA88FB7B11461846FFF799FF05E0BB
:101E7000FB7B0133FB73FB7B002BE6D000BF1037ED
:101E8000BD4680BD5C00002080B582B000AF40F24E
:101E900025510A48FFF771FB0346012B09D107487A
:101EA000FFF75CFB0346FB80FB8819462520FFF704
:101EB000C1FF00BF0837BD4680BD00BF0010014014
:101EC00080B582B000AF40F225510A48FFF755FBBC
:101ED0000346012B09D10748FFF740FB0346FB806F
:101EE000FB8819462620FFF7A5FF00BF0837BD462F
:101EF00080BD00BF0044004080B582B000AF40F21A
:101F000025510A48FFF739FB0346012B09D1074841
:101F1000FFF724FB0346FB80FB8819462720FFF7C9
:101F200089FF00BF0837BD4680BD00BF00480040A4
:101F300080B582B000AF40F225510A48FFF71DFB83
:101F40000346012B09D10748FFF708FB0346FB8036
:101F5000FB8819464720FFF76DFF00BF0837BD46D5
:101F600080BD00BF0014014080B483B000AF0346C1
:101F70003960FB713B6812221A80034B18460C37FC
:101F8000BD4680BC704700BFB000002080B483B065
:101F900000AF03463960FB713B6804221A80034B93
:101FA00018460C37BD4680BC704700BFD0000020EB
:101FB00080B582B000AF03463960FB713A680449CE
:101FC000044801F046F8024B18460837BD4680BD6C
:101FD000B81000203850000880B582B000AF03462A
:101FE0003960FB713A680449044801F032F8024B49
:101FF00018460837BD4680BDB81000205050000874
:1020000080B582B000AF03463960FB713A6804497D
:10201000044801F01EF8024B18460837BD4680BD43
:10202000B81000206450000880B582B000AF0346AD
:102030003960FB713A680449044801F00AF8024B20
:1020400018460837BD4680BDB810002074500008FF
:1020500080B582B000AF03463960FB713A6804492D
:10206000044800F0F6FF024B18460837BD4680BD15
:10207000B81000208050000880B487B000AF7860AE
:10208000396000237B6100233B610023FB60002358
:102090007B6176E001227B6902FA03F33B613B68D6
:1020A0001A683B691340FB60FA683B699A4265D144
:1020B0007B681A687B695B00032101FA03F3DB4349
:1020C0001A407B681A607B681A683B681B7919465E
:1020D0007B695B0001FA03F31A437B681A603B6873
:1020E0001B79012B03D03B681B79022B2ED17B6817
:1020F0009A687B695B00032101FA03F3DB431A4012
:102100007B689A607B689A683B685B7919467B6953
:102110005B0001FA03F31A437B689A607B685A6894
:102120007B699BB2194601238B40DB431A407B68D5
:102130005A607B685B683A68927911467A6992B214
:1021400001FA02F292B21A437B685A607B68DA683D
:102150007B699BB25B00032101FA03F3DB431A4066
:102160007B68DA607B68DA683B68DB7919467B69F3
:102170005B0001FA03F31A437B68DA607B69013381
:102180007B617B690F2B85D900BF1C37BD4680BCA6
:10219000704780B485B000AF78600B467B80002329
:1021A000FB737B681A697B881340002B02D00123E4
:1021B000FB7301E00023FB73FB7B18461437BD461D
:1021C00080BC704780B485B000AF78600B467B80E0
:1021D00013467B700023FB600023BB607A787B880A
:1021E00003F007039B0002FA03F3FB607B88DB0824
:1021F0009BB218467B88DB089BB21A467B68083284
:1022000053F822207B8803F007039B000F2101FA7B
:1022100003F3DB4302EA03017B6800F1080243F8A1
:1022200022107B88DB089BB21A467B68083253F881
:102230002220FB681343BB607B88DB089BB21A46F5
:102240007B680832B96843F8221000BF1437BD46D6
:1022500080BC704780B400AF064B00221A60064B6A
:1022600000221A60054B00221A7000231846BD4652
:1022700080BC7047B4100020B0100020AC100020CB
:1022800080B400AF00231846BD4680BC70470000F4
:1022900080B485B000AFF860B9607A60FB68232B2A
:1022A00000F2988001A252F823F000BFD523000865
:1022B000D5230008D5230008D5230008D52300081E
:1022C000D5230008D5230008D5230008D52300080E
:1022D000D5230008D5230008D5230008D5230008FE
:1022E000D5230008D5230008D5230008D5230008EE
:1022F000D5230008D5230008D5230008D5230008DE
:10230000D5230008D5230008D5230008D5230008CD
:10231000D5230008D5230008D5230008D5230008BD
:10232000D5230008D5230008D52300083D23000845
:1023300081230008D5230008D5230008BB681B783B
:102340001A46BB6801331B781B021A43BB68023371
:102350001B781B041A43BB6803331B781B0613430B
:102360001A46204B1A60BB681A791E4B1A71BB685B
:102370005A791C4B5A71BB689A791A4B9A712AE0A8
:10238000184B1B68DAB2BB681A70BB680133154A78
:102390001268120AD2B21A70BB680233114A12686C
:1023A000120CD2B21A70BB6803330E4A1268120EB6
:1023B000D2B21A70BB6804330A4A12791A70BB6829
:1023C0000533084A52791A70BB680633054A927978
:1023D0001A7000E000BF002318461437BD4680BCC9
:1023E000704700BFD400002080B485B000AF786093
:1023F00039600023FB6017E0104B1B687968FA68AE
:102400000A4411780E4AD1540C4B1B6801330B4A15
:102410001360FB680133FB60084B1B68B3F5006F6A
:1024200002D3064B00221A60FA683B689A42E3D353
:10243000002318461437BD4680BC7047B8090020F9
:102440007811002080B487B000AF78603960002335
:102450007B6122E0164B1B68013303F07F033B6175
:10246000134A3B691360134B1B683A699A4201D1C6
:10247000022317E07A687B6913441B78FB730E4ACA
:102480003B691344FA7B1A700C4B1B780133DAB2A8
:102490000A4B1A707B6901337B617A693B689A4207
:1024A000D8D3002318461C37BD4680BC704700BFF8
:1024B000B4100020B01000202C100020AC10002020
:1024C00080B483B000AF0346FB710B4B1B680B4914
:1024D000FA79CA54084B1B680133074A1360064B4C
:1024E0001B68B3F5006F02D3034B00221A6000BFD4
:1024F0000C37BD4680BC7047B80900207811002019
:1025000080B500AF124A124B1B6843F00103136001
:102510000F4B00229A600E4A0D4B1B6823F0847308
:1025200023F4803313600A4B0A4A5A60084A084B66
:102530001B6823F480231360054B0022DA6000F04F
:102540000DF8054B4FF000629A6000BF80BD00BFE0
:10255000003802401030002400ED00E080B483B069
:1025600000AF00237B6000233B60354A344B1B687F
:1025700043F480331360324B1B6803F400333B6039
:102580007B6801337B603B68002B03D17B68B3F52C
:10259000A06FF0D12A4B1B6803F40033002B02D04C
:1025A00001233B6001E000233B603B68012B42D1EB
:1025B000234A234B1B6C43F080531364214A214B65
:1025C0001B6843F4804313601D4A1D4B9B68936056
:1025D0001B4A1B4B9B6843F400439360184A184BFB
:1025E0009B6843F4A0539360154B174A5A60144AF2
:1025F000134B1B6843F08073136000BF104B1B68C4
:1026000003F00073002BF9D0104B40F205621A6002
:102610000B4A0B4B9B6823F003039360084A084B5B
:102620009B6843F00203936000BF054B9B6803F077
:102630000C03082BF9D100BF0C37BD4680BC704796
:10264000003802400070004008544007003C02403F
:1026500080B485B000AF78600A4B1B68002B02D1B4
:10266000084B094A1A60074B1B68FB60054B1A6848
:102670007B681344034A1360FB6818461437BD4651
:1026800080BC7047A0090020A019002080B584B04C
:1026900000AF786001210120FFF728FB4FF4D853E9
:1026A000BB6003237B7302233B730023BB730023B4
:1026B000FB7307F1080319461B48FFF7DDFC0A22EC
:1026C00008211948FFF77EFD0A2209211648FFF765
:1026D00079FD0A220B211448FFF774FD0A220C2110
:1026E0001148FFF76FFD4FF48063BB600123BB739C
:1026F0000123FB7303237B7307F1080319460A4880
:10270000FFF7BAFC0A220A210748FFF75BFD012107
:102710008020FFF709FB01214FF08050FFF722FBDB
:1027200000BF1037BD4680BD0000024080B584B0B8
:1027300000AF78604FF4C06001F0ACFC43233B7302
:1027400001237B730323BB730123FB7307F10C038A
:10275000184601F0B1FC00BF1037BD4680BD000037
:1027600080B485B000AF78600023FB607A681346C0
:102770001B019B1ADB001A460A4BA3FB0213D21A59
:10278000520813449B08BB60FB680133FB60FA6886
:10279000BB689A4200D8F7E700BF1437BD4680BC3B
:1027A000704700BF2549922480B582B000AF7860A1
:1027B0007B684FF47A7202FB03F31846FFF7D0FFF1
:1027C00000BF0837BD4680BD80B500AF024800F0AD
:1027D0009AFC00BF80BD00BF080A002080B584B00D
:1027E00000AF786039600023FB733B685B78092B8E
:1027F00039D801A252F823F0492800085D280008C2
:102800006728000853280008672800082B280008BC
:1028100021280008672800083F28000835280008FC
:102820003968786800F036F922E03968786800F095
:1028300005FA1DE03968786800F03EFA18E039685A
:10284000786800F0B3FA13E03968786800F0DEFACF
:102850000EE03968786800F001FB09E039687868B3
:1028600000F064FB04E03968786800F0CFFB00BF3B
:10287000FB7B18461037BD4680BD00BF80B584B0D5
:1028800000AF786039600023FB737B6893F81231E6
:10289000032B1BD13B689B88DBB2012B11D87B68D3
:1028A000D3F8E0359B683968786898473B68DB88DF
:1028B000002B10D1FB7B002B0DD1786801F0E6FED8
:1028C00009E03968786800F0A1FB04E039687868AD
:1028D00000F09CFB00E000BFFB7B18461037BD46B4
:1028E00080BD000080B584B000AF786039600023FF
:1028F000FB733B689B88BB733B685B78012B39D0CB
:10290000032B02D0002B6CD0BDE07B6893F8123112
:10291000022B02D0032B0CD025E0BB7B002B27D051
:10292000BB7B802B24D0BB7B1946786801F0B3FDBC
:102930001EE03B685B88002B0AD1BB7B002B07D0D5
:10294000BB7B802B04D0BB7B1946786801F0A3FDCC
:102950007B68D3F8E0359B68396878689847786871
:1029600001F094FE05E03968786800F04FFB00E064
:1029700000BF88E07B6893F81231022B02D0032B52
:102980000CD025E0BB7B002B27D0BB7B802B24D039
:10299000BB7B1946786801F07EFD1EE03B685B88D2
:1029A000002B1CD1BB7B002B0ED0BB7B802B0BD014
:1029B000BB7B1946786801F0A9FD7B68D3F8E03548
:1029C0009B68396878689847786801F05FFE06E090
:1029D0003968786800F01AFB02E000BF53E000BFDE
:1029E00051E07B6893F81231022B02D0032B0CD0FC
:1029F00042E0BB7B002B44D0BB7B802B41D0BB7B18
:102A00001946786801F047FD3BE097F90E30002B3E
:102A100015DABB7B03F07F02796813469B001344F1
:102A2000DB000B4403F58D731B78002B03D0184B90
:102A300001221A601AE0164B00221A6016E097F97C
:102A40000E30002B12DBBA7B796813469B001344CF
:102A5000DB000B4403F272331B78002B03D00C4BCA
:102A600001221A6002E00A4B00221A600222084981
:102A7000786801F0A3FD05E03968786800F0C6FACF
:102A800000E000BF00BFFB7B18461037BD4680BD8D
:102A9000A409002080B584B000AF786039603B683D
:102AA0005B881B0A9BB2013B062B00F2A98001A2A6
:102AB00052F823F0D12A0008012B0008292B000826
:102AC000012C0008012C0008ED2B0008F72B000852
:102AD0007B68D3F8E8351B687A68927807F10A01B9
:102AE00010469847F8603B68DB88402B05D07B6830
:102AF00093F81231012B40F0888008237B8184E019
:102B00007B68D3F8E0359B6A7A68927807F10A010E
:102B100010469847F860FB68013302221A707B6800
:102B2000FA68C3F8EC2571E03B685B88DBB2052BE3
:102B300056D801A252F823F0512B0008692B000847
:102B4000812B0008992B0008B12B0008C92B000825
:102B50007B68D3F8E8355B687A68927807F10A01F8
:102B600010469847F86040E07B68D3F8E8359B68EA
:102B70007A68927807F10A0110469847F86034E0C5
:102B80007B68D3F8E835DB687A68927807F10A0148
:102B900010469847F86028E07B68D3F8E8351B6951
:102BA0007A68927807F10A0110469847F8601CE0AD
:102BB0007B68D3F8E8355B697A68927807F10A0197
:102BC00010469847F86010E07B68D3F8E8359B69B9
:102BD0007A68927807F10A0110469847F86004E095
:102BE0003968786800F012FA25E00FE039687868F3
:102BF00000F00CFA1FE03968786800F007FA1AE074
:102C00003968786800F002FA15E000BF7B89002B74
:102C100011D03B68DB88002B0DD03B68DA887B89BC
:102C2000934228BF13469BB27B817B891A46F96881
:102C3000786801F0C3FC1037BD4680BD80B584B014
:102C400000AF786039603B689B88002B2CD13B68D3
:102C5000DB88002B28D13B685B88DBB203F07F0365
:102C6000FB737B6893F81231032B04D139687868C1
:102C700000F0CCF91CE07B68FA7B83F81321FB7B26
:102C80001946786801F07DFC786801F0FFFCFB7B59
:102C9000002B04D07B68022283F8122108E07B68B5
:102CA000012283F8122103E03968786800F0AEF958
:102CB00000BF1037BD4680BD80B582B000AF7860E0
:102CC00039603B685B88DAB2374B1A70364B1B7839
:102CD000012B04D93968786800F098F95FE07B68C7
:102CE00093F81231022B02D0032B1BD052E02E4B53
:102CF0001B78002B12D02C4B1A787B6883F810219C
:102D00007B68032283F81221274B1B7819467868C9
:102D1000FEF76BFE786801F0B9FC40E0786801F0DE
:102D2000B5FC3CE0204B1B78002B12D17B680222C3
:102D300083F812211C4B1A787B6883F810211A4BF8
:102D40001B7819467868FEF768FE786801F09EFCEB
:102D500025E07B6893F81021134B1B789A4215D01D
:102D60007B6893F8103119467868FEF756FE0E4BD3
:102D70001A787B6883F810210B4B1B78194678680A
:102D8000FEF733FE786801F081FC08E0786801F016
:102D90007DFC04E03968786800F038F900BF00BFB6
:102DA0000837BD4680BD00BFB009002080B582B0A5
:102DB00000AF786039603B68DB88012B04D039684C
:102DC000786800F023F91BE07B6893F81231022B3E
:102DD00002D0032B06D00EE001220B49786801F0E7
:102DE000EDFB0DE07B6803F58873012219467868D6
:102DF00001F0E4FB04E03968786800F007F900BFEF
:102E000000BF0837BD4680BDA809002080B582B04C
:102E100000AF786039607B6893F81231023B012B78
:102E200011D87B68D3F81431002B03D00A4B03224E
:102E30001A6002E0084B01221A60012206497868F4
:102E400001F0BCFB04E03968786800F0DFF800BFEF
:102E500000BF0837BD4680BDAC09002080B584B0F6
:102E600000AF786039600023FB733B685B88012BFF
:102E70000ED17B680122C3F814217B68D3F8E035BA
:102E80009B68396878689847786801F0FFFB48E0EC
:102E90003B685B88022B44D13B689B88DBB2002BEC
:102EA0003FD17B681B695B68BB603B689B881B0AE2
:102EB0009BB2FB73FB7B013B042B2BD801A252F886
:102EC00023F000BFD92E0008E52E0008F12E0008DF
:102ED000FD2E0008092F00083B7A012262F3061339
:102EE0003B7217E03B7A022262F306133B7211E059
:102EF0003B7A032262F306133B720BE03B7A042217
:102F000062F306133B7205E03B7A052262F3061377
:102F10003B7200BF7B681B69BA685A60786801F031
:102F2000B5FB00BF1037BD4680BD00BF80B582B085
:102F300000AF786039607B6893F81231023B012B57
:102F400012D83B685B88012B13D17B680022C3F841
:102F500014217B68D3F8E0359B6839687868984716
:102F6000786801F093FB04E03968786800F04EF867
:102F700000E000BF00BF0837BD4680BD80B483B00D
:102F800000AF786039607B6893F8C8253B681A7099
:102F90007B6893F8C9253B685A707B6893F8CA35FB
:102FA0009AB27B6893F8CB359BB21B029BB2134459
:102FB0009AB23B685A807B6893F8CC359AB27B68AA
:102FC00093F8CD359BB21B029BB213449AB23B6877
:102FD0009A807B6893F8CE359AB27B6893F8CF35A8
:102FE0009BB21B029BB213449AB23B68DA803B68E7
:102FF000DB881A467B68C3F83C217B68012283F892
:10300000112100BF0C37BD4680BC704780B582B02F
:1030100000AF786039603B681B785BB2002B04DA44
:103020008021786801F037FA0CE03B68DB88002BE0
:1030300004D18021786801F02EFA03E0002178683D
:1030400001F029FA7868FEF7ACF900BF0837BD46F1
:1030500080BD80B586B000AFF860B9607A600023AB
:10306000FB75FB68002B33D0F86800F035F8034699
:1030700001339BB25B009AB27B681A80FB7D5A1CBD
:10308000FA751A46BB6813447A681288D2B21A706D
:10309000FB7D5A1CFA751A46BB68134403221A704A
:1030A00012E0FB7D5A1CFA751A46BB681A44FB688D
:1030B000591CF9601B781370FB7D5A1CFA751A466F
:1030C000BB68134400221A70FB681B78002BE8D100
:1030D00000BF1837BD4680BD80B485B000AF7860B2
:1030E0000023FB7305E0FB7B0133FB737B6801333B
:1030F0007B607B681B78002BF5D1FB7B184614376F
:10310000BD4680BC704780B586B000AF78600023B4
:103110007B617868FDF787FB0346002B00F0B680E3
:103120007868FDF791FB03463B613B69002B01D1B9
:103130000023ACE0BB7C03F00803DBB2002B06D01D
:10314000786800F065FA02467B6913437B61BB7CBB
:1031500003F00403DBB2002B06D0786800F062F9BC
:1031600002467B6913437B613B7C03F00203DBB2C5
:10317000002B09D00023FB603B7B43F002033B7331
:103180007B68DB68FA685A61FB7C23F07F03DBB263
:10319000002B06D0786800F0B7F802467B6913432D
:1031A0007B617B7C03F00803DBB2002B06D07868E0
:1031B00000F0EAF802467B6913437B613B7C03F035
:1031C0000803DBB2002B06D0786800F0DDFA024677
:1031D0007B6913437B613B7C03F01003DBB2002B64
:1031E00006D0786800F0EAFA02467B6913437B61F7
:1031F0007B7C03F01003DBB2002B06D0786800F074
:10320000D1FB02467B6913437B617B7C03F0200387
:10321000DBB2002B06D0786800F060FC02467B69C8
:1032200013437B61BB7C03F01003DBB2002B06D0A1
:10323000786800F08FFC02467B6913437B61BB7C9E
:1032400003F02003DBB2002B06D0786800F09CFC72
:1032500002467B6913437B61FB7C03F04003DBB2D6
:10326000002B06D0786800F017F802467B691343FC
:103270007B613B7C03F00403DBB2002B06D0786853
:1032800000F024F802467B6913437B617B69184692
:103290001837BD4680BD000080B584B000AF7860AF
:1032A000094B1B685B6A786898470023FB60FB7BCF
:1032B00043F04003FB737B68DB68FA685A610123C3
:1032C00018461037BD4680BD4800002080B584B048
:1032D00000AF78607B68DB685B68FB603B7B03F07A
:1032E0000403DBB2002B04D0064B1B689B6A786892
:1032F00098477B68DB68FA685A60012318461037E4
:10330000BD4680BD4800002080B586B000AF786023
:103310007B689B7A002B11D07B6803F586731B6852
:10332000FB603B7B6FF341033B733B7B6FF300031D
:103330003B737B68D3F80C31FA681A6000233B6159
:103340003B7C43F001033B747B681B697A6812691C
:1033500051683A69D2430A405A600A4B1B689B691C
:103360007868984700237B61FB7D43F08003FB7501
:103370007B68DB687A695A61012318461837BD46B5
:1033800080BD00BF4800002080B586B000AF7860E7
:10339000224B1B685B69786898477B681B699B6850
:1033A000FB6000237B617B7D43F008037B757B68BA
:1033B000DB687A695A617B689B7A002B29D03B7B5A
:1033C00003F00103DBB2002B23D000233B613B7CE5
:1033D00043F001033B747B68D3F80C317A68D2F870
:1033E0000C2111683A690A431A603B7C43F00203DE
:1033F0003B747B68D3F80C317A68D2F80C211168E1
:103400003A690A431A60064A054B1B6943F00603F2
:103410001361012318461837BD4680BD48000020BF
:1034200000ED00E080B586B000AF786000233B611E
:103430000023BB607868FDF79FFF7861DCE07B6963
:1034400003F00103002B00F0D1803B69DBB2194689
:10345000786800F0B3FB0346BB603B7A03F00103DE
:10346000DBB2002B32D001223B6902FA03F3FB608E
:103470007B681B697A681269516BFA68D2430A400B
:103480005A630023BB603B7A43F001033B727A68C6
:103490003B6904339B0013449B68BA689A605B4B9A
:1034A0001B685B683A69D2B21146786898477B68B6
:1034B000DB78012B0AD13B69002B07D17B6893F89D
:1034C0001131042B02D17868FDF76BFF3B7A03F0D2
:1034D0000403DBB2002B0DD00023BB603B7A43F02A
:1034E00004033B727A683B6904339B0013449B6876
:1034F000BA689A603B7A03F00803DBB2002B0DD068
:103500000023BB603B7A43F008033B727A683B6957
:1035100004339B0013449B68BA689A603B7A03F0BB
:103520001003DBB2002B0DD00023BB603B7A43F0CD
:1035300010033B727A683B6904339B0013449B6819
:10354000BA689A603B7A03F02003DBB2002B0DD0FF
:103550000023BB603B7A43F020033B727A683B69EF
:1035600004339B0013449B68BA689A603B7A03F06B
:103570004003DBB2002B0DD00023BB603B7A43F04D
:1035800040033B727A683B6904339B0013449B6899
:10359000BA689A603B7A03F00203DBB2002B0DD0CD
:1035A0000023BB603B7A43F002033B727A683B69BD
:1035B00004339B0013449B68BA689A603B7A23F0FB
:1035C0007F03DBB2002B11D03969786800F078F9FD
:1035D0000023BB603B7A43F080033B727A683B690F
:1035E00004339B0013449B68BA689A603B690133BB
:1035F0003B617B695B087B617B69002B7FF41FAFBC
:10360000012318461837BD4680BD00BF4800002082
:1036100080B586B000AF786000233B610023FB607B
:103620007868FDF77AFE7861A3E07B6903F0010317
:10363000002B00F098803B69DBB219467868FDF7F3
:1036400081FE0346FB603B7B03F00103DBB2002BF2
:1036500048D00023FB603B7B43F001033B737A6857
:103660003B6914339B0013445B68FA689A607B687B
:10367000DB78012B1FD17A683B6914339B0013441C
:103680005B681B69BB6079683A6913469B00134409
:10369000DB000B4403F55E731B68BA68C2F31202C9
:1036A000991A78683A6913469B001344DB00034477
:1036B00003F562731960334B1B681B683A69D2B219
:1036C0001146786898477B68DB78012B0AD13B6903
:1036D000002B07D17B6893F81131052B02D1786854
:1036E000FDF75FFE3B7B03F00203DBB2002B0DD046
:1036F0000023FB603B7B43F002033B737A683B692A
:1037000014339B0013445B68FA689A603B7B03F0B8
:103710000403DBB2002B0DD00023FB603B7B43F0A6
:1037200004033B737A683B6914339B0013445B6862
:10373000FA689A603B7B03F00803DBB2002B12D0DF
:10374000104B1B689B68786898470023FB603B7BA5
:1037500043F008033B737A683B6914339B001344BE
:103760005B68FA689A603B6901333B617B695B087F
:103770007B617B69002B7FF458AF01231846183713
:10378000BD4680BD4800002080B584B000AF7860A1
:10379000094B1B68DB68786898470023FB603B7B1C
:1037A00043F008033B737B68DB68FA685A610123C6
:1037B00018461037BD4680BD4800002080B586B051
:1037C00000AF786000233B613B7C43F010033B7407
:1037D0007B68DB687A68D26891693A69D2430A40AB
:1037E0009A617B68DB681B6AFB603B7BC3F3030366
:1037F000DBB21A4613469B001344DB0003F55C73EF
:103800007A6813447B61BB7BC3F34303DBB2013BA8
:10381000052B45D801A252F823F000BFA1380008BB
:1038200035380008A1380008A1380008A138000880
:103830007D380008BA8947F6F07313409BB2002B1D
:1038400030D07B69D968BB89C3F30A139BB21A468F
:103850007868FCF73DFD7B69DB68BA89C2F30A1220
:1038600092B21A447B69DA607B699B69BA89C2F3B8
:103870000A1292B21A447B699A6113E07B6803F5DD
:10388000B963082219467868FCF722FD7B699B69B9
:10389000BA89C2F30A1292B21A447B699A6102E0B1
:1038A00000BF00E000BF7B68DB687A68D26891697E
:1038B0003A690A439A61012318461837BD4680BD0C
:1038C00080B586B000AF7860396000237B6100234B
:1038D000BB603A6813469B001344DB0003F58C730E
:1038E0007A681344FB60FB685A69FB689B69D31ACA
:1038F0007B61FB689A687B699A4202D2FB689B688D
:103900007B617B6903339B083B617A683B680433C6
:103910009B0013449B689B69BB602EE0FB685A695F
:10392000FB689B69D31A7B61FB689A687B699A4242
:1039300002D2FB689B687B617B6903339B083B6118
:10394000FB68D9683B68DAB27B699BB27868FCF7A0
:1039500085FCFB68DA687B691A44FB68DA60FB68FF
:103960009A697B691A44FB689A617A683B680433F8
:103970009B0013449B689B69BB603B891A463B696B
:103980009A4209D9FB689A69FB685B699A4203D23B
:10399000FB685B69002BC1D1012318461837BD466F
:1039A00080BD000080B58AB000AF786000233B6125
:1039B00000233B620023FB610023BB6100237B618A
:1039C0000023FB603B7C43F001033B747B681B6975
:1039D0007A68126951683A69D2430A405A600021F4
:1039E0007868FCF779FE00237B6212E07A687B6AD4
:1039F00004339B0013449B68FF229A607A687B6AB9
:103A000014339B0013445B68FF229A607B6A013386
:103A10007B627B685B781A467B6A9A42E6D87B6851
:103A20001B694FF0FF329A6101233B8401237B84A1
:103A30007B681B693A6ADA613B7F43F008033B7796
:103A40003B7F43F001033B773B7F43F004033B772D
:103A50003B7F43F002033B777B681B69FA695A613D
:103A60003B7E43F001033B763B7E43F008033B760D
:103A70003B7E43F002033B763B7E43F004033B7600
:103A80003B7E43F020033B767B681B69BA691A6171
:103A90007B681B691B687B61BB8A6FF30A13BB825F
:103AA0007B681B697A691A607868FDF77AFC0023E5
:103AB000FB607B7B43F010037B737B68DB68FA68F9
:103AC0005A61054B1B681B697868984701231846A3
:103AD0002837BD4680BD00BF4800002080B584B0B7
:103AE00000AF78607868FDF788F87B68DB68DB6892
:103AF000BB607868FDF75EF80346032B0CD17B684A
:103B000000229A707B684FF400729A807B7A0922B7
:103B100062F385037B720AE07B6801229A707B68FE
:103B200040229A807B7A052262F385037B727B6850
:103B3000DB68BA68DA600023FB607B7B43F020031C
:103B40007B737B68DB68FA685A610123184610377B
:103B5000BD4680BD80B584B000AF78600023FB60B7
:103B6000084B1B68DB6978689847BB7B43F0100300
:103B7000BB737B68DB68FA685A610123184610370B
:103B8000BD4680BD4800002080B584B000AF78609D
:103B90000023FB60084B1B681B6A78689847BB7B57
:103BA00043F02003BB737B68DB68FA685A6101232A
:103BB00018461037BD4680BD4800002080B487B04D
:103BC00000AF78600B46FB707B681B691B697B61EB
:103BD0007B681B695B6B3B61FB783A6922FA03F3F4
:103BE000DB01DBB27A6913437B61FB787A680433CB
:103BF0009B0013449B689A687B691340FB60FB68D9
:103C000018461C37BD4680BC7047000080B584B0A4
:103C100000AF78600B46FB707B68D3F8EC35393326
:103C20001A8802238121786800F029FB7B68D3F889
:103C3000EC3540331A8802230121786800F01FFB1D
:103C4000032308228221786800F019FB0D4BFB60EA
:103C5000FB68043302221A70FB68053300221A70D5
:103C6000094B1B6898477B68D3F8EC3540331B88B9
:103C7000064A0121786800F092FB002318461037AD
:103C8000BD4680BDB0000020DC00002030110020C7
:103C900080B582B000AF78600B46FB7081217868F8
:103CA00000F043FB0121786800F03FFB8221786837
:103CB00000F03BFB034B5B6898470023184608372E
:103CC000BD4680BDDC00002080B584B000AF7860C8
:103CD00039600023FB813B681B7803F06003002BF5
:103CE0003DD0202B35D13B68DB88002B27D03B68AB
:103CF0001B785BB2002B10DA354B9B683A68527820
:103D000010463A68D288334998473B68DB881A46A0
:103D10003049786800F052FC19E03B685B781A463D
:103D20002D4B1A603B68DB881A462C4B1A603B68A7
:103D3000DB881A462749786800F074FC07E0244BBA
:103D40009B683A6852781046002200219847002369
:103D50003AE039687868FFF759F9022334E03B68A4
:103D60005B780A2B18D00B2B1CD0062B2BD13B6871
:103D70005B881B0A9BB2212B07D1194BBB603B68A8
:103D8000DB883A2B28BF3A23FB81FB891A46B968A6
:103D9000786800F013FC16E001221249786800F000
:103DA0000DFC10E03B685B88DBB2002B06D13B6862
:103DB0005B88DBB21A460B4B1A6003E039687868FF
:103DC000FFF724F900BF002318461037BD4680BD19
:103DD000DC0000207011002034010020C809002000
:103DE00002010020B409002080B582B000AF7860E5
:103DF000094B1B68FF2B0AD0084B9B68064A1068CA
:103E0000074A126807499847034BFF221A600023AC
:103E100018460837BD4680BD34010020DC00002074
:103E2000C80900207011002080B584B000AF786010
:103E30000B46FB70294B1B78DBB2012B48D1284B7A
:103E40001B68002B03D1254B00221A7040E07B68D1
:103E5000D3F8EC3539331B881A46214B1B689A423C
:103E60001ED2204B1B68FB817B68D3F8EC35B3F87E
:103E70003930BB817B68D3F8EC3539331B881A465F
:103E8000184B1B681344174A1360154B1B687A685C
:103E9000D2F8EC25393212889B1A114A13600FE0D0
:103EA000104B1B68FB810E4B1B68BB810D4B1A68C6
:103EB0000B4B1B6813440B4A1360094B00221A601A
:103EC000FB89094A1A44BB898121786800F0A8FA65
:103ED000002318461037BD4680BD00BFC40900202E
:103EE000C0090020BC0900207811002080B584B0F2
:103EF00000AF78600B46FB70FA78796813469B0038
:103F00001344DB000B4403F562731B68FB810A4B0F
:103F10001B69FA891146094898477B68D3F8EC3544
:103F200040331B88054A0121786800F038FA0023E5
:103F300018461037BD4680BDDC000020301100203F
:103F400080B582B000AF7860084B1B685A1C0749E7
:103F50000A60052B05D1054B00221A60786800F035
:103F600007F8002318460837BD4680BDCC0900205D
:103F700080B584B000AF7860384B1B78DBB2012B82
:103F800069D0374B1B68B3F5006F02D1344B002268
:103F90001A60334B1A68334B1B689A4203D12F4B7C
:103FA00000221A7057E02E4B1A682E4B1B689A425B
:103FB00006D92B4B1B68C3F500632B4A136006E040
:103FC000284B1A68264B1B68D31A274A13607B6854
:103FD000D3F8EC3539331B881A46234B1B689A42B9
:103FE0001ED21F4B1B68FB817B68D3F8EC35B3F8FE
:103FF0003930BB817B68D3F8EC3539331B881A46DE
:10400000174B1B681344164A1360174B1B687A68DA
:10401000D2F8EC25393212889B1A134A13600FE04C
:104020000F4B1B68FB81104B1B68BB810C4B1A6844
:104030000D4B1B6813440A4A13600B4B00221A6095
:10404000064B01221A70FB89084A1A44BB89812158
:10405000786800F0E5F91037BD4680BDC40900203E
:10406000BC090020B8090020C009002078110020F8
:1040700080B483B000AF03463960FB713B684322D4
:104080001A80034B18460C37BD4680BC704700BFF2
:10409000F000002080B483B000AF7860054A7B68F0
:1040A00043F0BF6343F40033D36000BF0C37BD4619
:1040B00080BC704700ED00E080B485B000AF786050
:1040C0000023FB730023BB730F237B737B68DB78B8
:1040D000002B39D0274BDB68DB431B0ADBB203F034
:1040E0000703FB73FB7BC3F10403BB737A7BFB7B8E
:1040F00042FA03F37B737B685B781A46BB7B02FA58
:1041000003F3FB737B689A787B7B1340DAB2FB7B0B
:104110001343FB73FB7B1B01FB73174A7B681B7804
:104120001344FA7B83F80023134A7B681B785B09EE
:10413000DBB218467B681B7803F01F03012101FAEC
:1041400003F342F820300FE00B497B681B785B09D2
:10415000DBB218467B681B7803F01F0301229A40EC
:1041600000F1200341F8232000BF1437BD4680BC76
:10417000704700BF00ED00E000E100E080B584B0D2
:1041800000AF78600B46FB70FB7819467868FCF747
:10419000CBF87B68012283F812217B68002283F828
:1041A00013210023FB6023E0FA6813469B001344AD
:1041B000DB0003F58C737A681344BB60BB68012293
:1041C0005A70FB68DAB2BB681A70FB689AB2BB68B7
:1041D000DA80BB680022DA70BB6840229A60BB6854
:1041E0000022DA60BB6800225A61FB680133FB6081
:1041F0007B685B781A46FB689A42D5D80023FB603F
:1042000023E0FA6813469B001344DB0003F55C735C
:104210007A681344BB60BB6800225A70FB68DAB24C
:10422000BB681A70FB689AB2BB68DA80BB68002270
:10423000DA70BB6840229A60BB680022DA60BB6813
:1042400000225A61FB680133FB607B685B781A4689
:10425000FB689A42D5D87868FCF723FA7868FCF7AF
:104260001DF900217868FCF7A1FA7868FCF71DFBBE
:104270007868FCF7FCF900BF1037BD4680BD80B5FB
:1042800084B000AF7860084611461A460346FB70BA
:104290000B463B801346BB7097F90330002B0CDABA
:1042A000FB7803F07F0213469B001344DB0003F509
:1042B0008C737A681344FB600BE0FB7803F07F0299
:1042C00013469B001344DB0003F55C737A681344C8
:1042D000FB60FB7803F07F03DAB2FB681A7097F992
:1042E0000330DBB2DB09DBB21A46FB685A703A884E
:1042F000FB689A60FB68BA78DA70FB685B78002B21
:1043000004D0FB681B789AB2FB68DA80BB78022B7A
:1043100002D1FB6800221A71F9687868FCF7A7FCE3
:10432000002318461037BD4680BD80B584B000AF6D
:1043300078600B46FB7097F90330002B0CDAFB78A2
:1043400003F07F0213469B001344DB0003F58C73DC
:104350007A681344FB600BE0FB7803F07F0213469E
:104360009B001344DB0003F55C737A681344FB6025
:10437000FB7803F07F03DAB2FB681A7097F9033019
:10438000DBB2DB09DBB21A46FB685A70F968786861
:10439000FCF7DAFC002318461037BD4680BD80B517
:1043A00086B000AFF8607A601A460B46FB7213467F
:1043B0003B81FB7A03F07F0213469B001344DB0032
:1043C00003F55C73FA6813447B617B697A68DA6091
:1043D0003A897B695A617B6900229A617B69002274
:1043E0005A70FB7A03F07F03DAB27B691A70FB68BC
:1043F000DB78012B02D17A687B691A617B691B78B3
:10440000002B04D17969F868FCF722FE03E0796992
:10441000F868FCF7DDFC002318461837BD4680BD60
:1044200080B586B000AFF8607A603B600B46FB72E7
:10443000FB7A03F07F0213469B001344DB0003F575
:104440008C73FA6813447B617B6901225A70FB7A92
:1044500003F07F03DAB27B691A707B697A68DA60ED
:104460007A687B691A617B6900229A617B693A6884
:104470005A617B691B78002B04D17969F868FCF7D5
:10448000E7FD03E07969F868FCF7A2FC0023184611
:104490001837BD4680BD80B584B000AF78600B464C
:1044A000FB7097F90330002B0CDAFB7803F07F02E6
:1044B00013469B001344DB0003F58C737A681344A6
:1044C000FB6009E0FA7813469B001344DB0003F518
:1044D0005C737A681344FB60FB6801229A70FB7876
:1044E00003F07F03DAB2FB681A7097F90330DBB28E
:1044F000DB09DBB21A46FB685A70F9687868FCF78A
:1045000090FE002318461037BD4680BD80B584B0AC
:1045100000AF78600B46FB7097F90330002B0CDA84
:10452000FB7803F07F0213469B001344DB0003F586
:104530008C737A681344FB6009E0FA7813469B0099
:104540001344DB0003F55C737A681344FB60FB687B
:1045500000229A70FB7803F07F03DAB2FB681A70CE
:1045600097F90330DBB2DB09DBB21A46FB685A70FD
:10457000F9687868FCF797FE002318461037BD46A7
:1045800080BD80B485B000AF78600B46FB7000231F
:10459000FB60FB7803F07F03DAB2BB8962F30A1396
:1045A000BB817B681B697A6812691168FA680A43E3
:1045B0001A6000BF1437BD4680BC704780B586B016
:1045C00000AFF860B9601346FB800023FB75FA88E2
:1045D000FB68C3F83821FA88FB68C3F83421FB680C
:1045E000022283F81121FB88BA680021F868FFF7DE
:1045F00017FFFB7D18461837BD4680BD80B586B0D5
:1046000000AFF860B9601346FB800023FB75FB88A0
:10461000BA680021F868FFF703FFFB7D18461837DA
:10462000BD4680BD80B586B000AFF860B960134666
:10463000FB800023FB75FA88FB68C3F89023FA8897
:10464000FB68C3F88C23FB68032283F81121FB88E5
:10465000BA680021F868FFF7A2FEFB7D18461837FC
:10466000BD4680BD80B586B000AFF860B960134626
:10467000FB800023FB75FB88BA680021F868FFF710
:104680008EFEFB7D18461837BD4680BD80B584B0D0
:1046900000AF78600023FB737B68042283F811214C
:1046A0000023002200217868FFF7BAFE7868FCF743
:1046B00078FEFB7B18461037BD4680BD80B584B0C0
:1046C00000AF78600023FB737B68052283F811211B
:1046D0000023002200217868FFF761FE7868FCF76C
:1046E00060FEFB7B18461037BD4680BD024B01467D
:1046F000186800F003B800BF740500202DE9F04FE2
:1047000001F10B06162E83B0054640F29E8036F06E
:10471000070600F1BD80B14200F2BA8000F09EFAB7
:10472000B6F5FC7FC0F09382730A00F0B880042BCA
:1047300000F27981B30903F1390003F1380EC300A7
:10474000BF4F3B44A3F108015C68A14206D10CE0D5
:10475000002A80F2AA80E468A14206D0636823F0B0
:1047600003039A1B0F2AF3DD70463C69DFF8E4E28D
:10477000744500F0AB81636823F003039A1B0F2A92
:1047800000F39081002AC7F814E0C7F810E080F227
:104790009D80B3F5007F80F06181DB0803F1010C9F
:1047A00099107A6857F83C80C4F8088001238B4040
:1047B00007EBCC0113430839E1607B6047F83C40CC
:1047C000C8F80C408210012494409C4200F28B8077
:1047D0001C4206D120F0030064001C4200F10400DA
:1047E000FAD007EBC009CC468046DCF80C309C457B
:1047F00007D16DE1002A80F27B81DB689C4500F0E7
:104800006781596821F003018A1B0F2AF2DDD3F872
:104810000CC0D3F8088000939C19284646F0010686
:1048200042F001055E60C8F80CC0CCF808807C61DD
:104830003C61C4F80CE0C4F808E065605A5000F030
:1048400013FA009B03F108041EE0102920D800F0A1
:1048500005FA102618230220794F3B44A3F10802E1
:104860005C68944200F03D816368E168A66823F0CB
:104870000303234428465A68F16042F001028E6027
:104880005A6000F0F1F90834204603B0BDE8F08F1B
:1048900000240C2320462B6003B0BDE8F08F40209D
:1048A0004FF400734FF03F0E4AE72344E1685A6823
:1048B000A66842F00102F16028468E605A6000F05E
:1048C000D3F90834204603B0BDE8F08F23442846CE
:1048D0005A6842F001025A6000F0C6F908342046D6
:1048E00003B0BDE8F08FBC68636823F00308B045EF
:1048F00004D3A8EB06030F2B00F38580DFF8589153
:10490000504BD9F800201B680132334404EB080AED
:1049100000F0558103F580530F3323F47F6B2BF0A8
:104920000F0B5946284600F0A5F9411C024600F03D
:10493000FC80824500F2F780434B196859441960A6
:1049400000F04D81D9F8000001301BBFA2EB0A0A2C
:104950005144C9F80020196012F0070100F01581D8
:10496000C1F10800C1F580510244083102EB0B0986
:10497000C9F30B09A1EB09094946284601930092A6
:1049800000F078F9431C9DE80C0000F04381801A88
:10499000484440F001001968BA604944BC42506084
:1049A000196017D0B8F10F0F40F2FB806068A8F1D2
:1049B0000C0222F0070204EB020E00F001004FF09F
:1049C000050C10430F2A6060CEF804C0CEF808C072
:1049D00000F217811D4BBC681A68914288BF1960AC
:1049E0001B4B1A689142626888BF196022F003026B
:1049F0009642A2EB060301D80F2B04DC284600F0F8
:104A000033F9002440E7A21943F0010346F0010600
:104A100066602846BA60536000F026F908342046E4
:104A200003B0BDE8F08F142B71D9542B00F2A38092
:104A3000330B03F16F0003F16E0EC30080E600BF7D
:104A400064010020000A0020D0090020F80900209D
:104A5000FC0900206C0100206C0500205A0A042A81
:104A60005BD9142A00F2AE8002F15C01C9005B320E
:104A700007EB010C7958ACF1080C8C4500F08880EC
:104A80004A6822F00302934273D289688C45F7D1B9
:104A9000DCF80C207B68E260C4F808C09460CCF8B5
:104AA0000C408FE6A11946F0010C42F00106C4F853
:104AB00004C0284679613961C1F80CE0C1F808E00A
:104AC0004E60E25000F0D0F80834DDE67B6879E60D
:104AD00008F1010818F0030F0CF1080C7FF485AE03
:104AE0002DE0DC68A34208BF02303FF43EAEBBE6D7
:104AF00019441C464A68DB6854F8086F42F001020A
:104B00004A602846F3609E6000F0AEF8BCE603F110
:104B10005C0003F15B0EC30012E69A0902F1390151
:104B2000C9003832A4E7BC4254D0BC68626822F0A5
:104B300003025DE759F80839994540F0868010F086
:104B4000030F00F1FF30F5D17B6823EA04037B609B
:104B500064009C423FF6C7AE002C3FF4C4AE1C423A
:104B600040467FF43EAE64001C4200F10400FAD0DF
:104B700037E68C468CE7B3F5AA7F15D8F30B03F123
:104B8000780003F1770EC300DAE54FF48051EDE6CB
:104B90007B689210012101FA02F213437B606246A6
:104BA00079E70123536029E740F25452934222D817
:104BB000B30C03F17D0003F17C0EC300C0E503F1EB
:104BC000100BAEE6542A29D81A0B02F16F01C90066
:104BD0006E324DE7204B196859441960B2E6CAF3AA
:104BE0000B0000287FF4AEAE08EB0B03BA6843F06D
:104BF00001035360EEE67F204FF47E734FF07E0E8C
:104C00009EE504F108012846009300F017F9009B87
:104C10001968DFE601204FF00009BCE6B2F5AA7F73
:104C200005D8DA0B02F17801C900773220E740F2AB
:104C300054518A4205D89A0C02F17D01C9007C3298
:104C400016E74FF47E717E2212E77B6880E7F0085A
:104C500006F1080300E600BFD0090020014800F07B
:104C6000D3B900BF88190020014800F0CFB900BFB8
:104C70008819002038B5074C0023054608462360F4
:104C8000FDF7E6FC431C00D038BD2368002BFBD0A9
:104C90002B6038BD9C1900200000000000000000BF
:104CA0000000000000000000000000000000000004
:104CB00000000000000000000000000000000000F4
:104CC00090F800F06DE9024520F007016FF0000C4C
:104CD00010F0070491F820F040F049804FF00004F4
:104CE0006FF00700D1E9002391F840F000F10800CF
:104CF00082FA4CF2A4FA8CF283FA4CF3A2FA8CF307
:104D00004BBBD1E9022382FA4CF200F10800A4FA6D
:104D10008CF283FA4CF3A2FA8CF3E3B9D1E90423C1
:104D200082FA4CF200F10800A4FA8CF283FA4CF3F8
:104D3000A2FA8CF37BB9D1E9062301F1200182FAB2
:104D40004CF200F10800A4FA8CF283FA4CF3A2FAB8
:104D50008CF3002BC6D0002A04BF04301A4612BAC6
:104D6000B2FA82F2FDE8024500EBD2007047D1E9C9
:104D7000002304F00305C4F100004FEAC50514F058
:104D8000040F91F840F00CFA05F562EA05021CBF29
:104D900063EA050362464FF00004A9E7F8B5244F23
:104DA0000C460646FFF75AFFBB685D68C4F57E6196
:104DB0000F3125F00305294421F47F6121F00F0113
:104DC000A1F58054B4F5805F07DB00213046FFF782
:104DD00051FFBB682B44984204D03046FFF744FF94
:104DE0000020F8BD61423046FFF744FF01300DD08E
:104DF000104BBA6819682D1B45F001053046091B98
:104E000055601960FFF730FF0120F8BD00213046E2
:104E1000FFF730FFBA68831A0F2BDEDD064C054919
:104E2000246843F00103001B53600860D5E700BF0E
:104E300064010020D00900206C050020002944D026
:104E40002DE9F0410D468046FFF708FF55F8047C38
:104E5000694927F00103A5F10804E2188E6850683B
:104E6000B24220F003005ED0FE0750600BD455F82C
:104E7000087CE41B01F1080EA56875453B446DD024
:104E8000E768EF60BD6015186D68ED073ED543F02B
:104E900001026260E350B3F5007F17D2DB08581CB3
:104EA0009A104D6851F83070A7600123934001EBD0
:104EB000C0022B43083AE2604B6041F83040FC608E
:104EC0004046BDE8F041FFF7CFBE70475A0A042ABA
:104ED00052D89A0902F13907FF0002F13805C819C2
:104EE000CA59083890424FD0516821F003018B42D3
:104EF00032D292689042F7D1C368A060E3609C60B0
:104F0000C4604046BDE8F041FFF7AEBE95683B4F38
:104F1000BD42034440D0D068E86043F001028560A0
:104F20006260E350B7E7FF07034407D455F8082C45
:104F3000A41A1344A068E268C2609060304A126804
:104F400043F00100934260608C60B9D32D4B404622
:104F50001968FFF723FFB3E71046CDE7111849683A
:104F6000C90744D49168D268CA60034443F0010081
:104F700091606060E350A3E7142A16D802F15C0741
:104F8000FF0002F15B05AAE7AA1001234D689340D8
:104F90002B434B600346B0E743F001024C610C61C8
:104FA000E560A5606260E3508AE7542A06D81A0BD0
:104FB00002F16F07FF0002F16E0590E7B2F5AA7FDC
:104FC00006D8DA0B02F17807FF0002F1770586E7D1
:104FD00040F25450824206D89A0C02F17D07FF003D
:104FE00002F17C057BE74FF47E777E2577E743F07F
:104FF00001016160136063E7640100206C0100201F
:1050000070050020000A0020704700BF704700BFF5
:10501000425554544F4E20505245535345440D0A67
:1050200000000000425554544F4E20554E505245FA
:105030005345440D0A00000053544D333220566945
:10504000727475616C20436F6D506F727400000054
:1050500053544D6963726F656C656374726F6E69EA
:105060006373000030303030303030303035304312
:105070000000000056435020436F6E6669670000D1
:0E50800056435020496E746572666163650088
:10508E00AD140008C5140008E51400082D1500081D
:10509E0045150008FD1400081515000869170008CD
:1050AE0035180008FD160008C11900083719000848
:1050BE009D19000879190008411A00085F1A0008A6
:1050CE007D1A0008991A00081C000020000000003C
:1050DE000102030401020304060708090000000090
:1050EE0000000400070000000048004000C201005C
:1050FE002700000000080240000400000400000029
:10510E000A00000000080240000800000400000031
:10511E000B000000691F00088D1F0008D91F000832
:10512E00B11F0008012000082920000851200008A6
:10513E0012010002000000408304405700020102E9
:10514E00030100000A0600020000004001000000FA
:10515E000403090400C201000000080055220008E3
:10516E008122000891220008E92300084524000846
:10517E0009024300020100C03209040000010202CC
:10518E00010005240010010524010001042402027F
:10519E000524060001070582030800FF090401002B
:1051AE00020A000000070501024000000705810207
:1051BE0040000000FF0000000D3C0008913C00087C
:1051CE00C93C000800000000E93D0008293E000827
:1051DE00ED3E0008413F0008000000000000000006
:1051EE007140000800000000000000006401002073
:1051FE00640100206C0100206C010020740100206D
:10520E00740100207C0100207C010020840100201C
:10521E00840100208C0100208C01002094010020CC
:10522E00940100209C0100209C010020A40100207C
:10523E00A4010020AC010020AC010020B40100202C
:10524E00B4010020BC010020BC010020C4010020DC
:10525E00C4010020CC010020CC010020D40100208C
:10526E00D4010020DC010020DC010020E40100203C
:10527E00E4010020EC010020EC010020F4010020EC
:10528E00F4010020FC010020FC010020040200209B
:10529E00040200200C0200200C0200201402002048
:1052AE00140200201C0200201C02002024020020F8
:1052BE00240200202C0200202C02002034020020A8
:1052CE00340200203C0200203C0200204402002058
:1052DE00440200204C0200204C0200205402002008
:1052EE00540200205C0200205C02002064020020B8
:1052FE00640200206C0200206C0200207402002068
:10530E00740200207C0200207C0200208402002017
:10531E00840200208C0200208C02002094020020C7
:10532E00940200209C0200209C020020A402002077
:10533E00A4020020AC020020AC020020B402002027
:10534E00B4020020BC020020BC020020C4020020D7
:10535E00C4020020CC020020CC020020D402002087
:10536E00D4020020DC020020DC020020E402002037
:10537E00E4020020EC020020EC020020F4020020E7
:10538E00F4020020FC020020FC0200200403002096
:10539E00040300200C0300200C0300201403002043
:1053AE00140300201C0300201C03002024030020F3
:1053BE00240300202C0300202C03002034030020A3
:1053CE00340300203C0300203C0300204403002053
:1053DE00440300204C0300204C0300205403002003
:1053EE00540300205C0300205C03002064030020B3
:1053FE00640300206C0300206C0300207403002063
:10540E00740300207C0300207C0300208403002012
:10541E00840300208C0300208C03002094030020C2
:10542E00940300209C0300209C030020A403002072
:10543E00A4030020AC030020AC030020B403002022
:10544E00B4030020BC030020BC030020C4030020D2
:10545E00C4030020CC030020CC030020D403002082
:10546E00D4030020DC030020DC030020E403002032
:10547E00E4030020EC030020EC030020F4030020E2
:10548E00F4030020FC030020FC0300200404002091
:10549E00040400200C0400200C040020140400203E
:1054AE00140400201C0400201C04002024040020EE
:1054BE00240400202C0400202C040020340400209E
:1054CE00340400203C0400203C040020440400204E
:1054DE00440400204C0400204C04002054040020FE
:1054EE00540400205C0400205C04002064040020AE
:1054FE00640400206C0400206C040020740400205E
:10550E00740400207C0400207C040020840400200D
:10551E00840400208C0400208C04002094040020BD
:10552E00940400209C0400209C040020A40400206D
:10553E00A4040020AC040020AC040020B40400201D
:10554E00B4040020BC040020BC040020C4040020CD
:10555E00C4040020CC040020CC040020D40400207D
:10556E00D4040020DC040020DC040020E40400202D
:10557E00E4040020EC040020EC040020F4040020DD
:10558E00F4040020FC040020FC040020040500208C
:10559E00040500200C0500200C0500201405002039
:1055AE00140500201C0500201C05002024050020E9
:1055BE00240500202C0500202C0500203405002099
:1055CE00340500203C0500203C0500204405002049
:1055DE00440500204C0500204C05002054050020F9
:1055EE00540500205C0500205C050020FFFFFFFF36
:1055FE000000020078050020000000006408002072
:10560E00CC0800203409002000000000000000003B
:10561E00000000000000000000000000000000007C
:10562E00000000000000000000000000000000006C
:10563E00000000000000000000000000000000005C
:10564E00000000000000000000000000000000004C
:10565E00000000000000000000000000000000003C
:10566E00000000000000000000000000000000002C
:10567E00000000000000000000000000000000001C
:10568E00000000000000000000000000000000000C
:10569E0000000000000000000000000000000000FC
:1056AE0001000000000000000E33CDAB34126DE699
:1056BE00ECDE05000B000000000000000000000002
:1056CE0000000000000000000000000000000000CC
:1056DE0000000000000000000000000000000000BC
:1056EE0000000000000000000000000000000000AC
:1056FE00000000000000000000000000000000009C
:0400000508000000EF
:00000001FF
